:100000000C9446000C9465000C9465000C946500FB
:100010000C9465000C9465000C9465000C946500CC
:100020000C9465000C9465000C9465000C946500BC
:100030000C9465000C9465000C9465000C946500AC
:100040000C9465000C9465000C94BA000C94650047
:100050000C9465000C9465000C9465000C9465008C
:100060000C9465000C9465000C9465000C9465007C
:100070000C9465000C9465000C9465000C9465006C
:100080000C9465000C9465000C94650011241FBE4F
:10009000CFEFD0E1DEBFCDBF12E0A0E0B1E0ECEEEB
:1000A000FFE000E00BBF02C007900D92AE31B10738
:1000B000D9F712E0AEE1B2E001C01D92A932B1075A
:1000C000E1F70E9480010C94F4070C9400001BBA25
:1000D0009FEF9ABB18BA97BB15BA8FE084BB12BAD0
:1000E00011BA13B812B81092620010926100109207
:1000F0006500909364000895F89410926D0010923A
:100100006C000E94670015BE10926A001ABE19BEEC
:1001100078940895DF93CF9300D000D0CDB7DEB7A9
:100120009C0181E090E09A83898341E050E012C015
:100130005C834B8305C08B819C8101969C838B8360
:100140008B819C8188559240B4F389819A81019674
:100150009A83898389819A81821793074CF30F9040
:100160000F900F900F90CF91DF9108955D9BFECF80
:100170008CB908951F920F920FB60F9211248F938E
:100180008CB1809307018F910F900FBE0F901F903D
:10019000189580EF85BB80E48BBB109265001092B0
:1001A00024028FEF9FEF909306018093050108953D
:1001B000BC0140E020E030E0FB01E20FF31FD90179
:1001C000A050BF4F90818C9198134F5F2F5F3F4F8E
:1001D0002430310589F7842F0895809124028823E3
:1001E00031F48091050190910601892B61F0109204
:1001F000240210922602109225028EEF9FEF909318
:1002000006018093050108951F93CF93DF9390918A
:100210002402933049F0E92FF0E0E05EFD4F808347
:100220009F5F9093240268C08093230280E292E053
:100230000E94D800882381F0109226021092250295
:10024000109224028EEF9FEF909306018093050198
:10025000809108018BBB50C0E0912502F0912602ED
:10026000E85FFE4F80818BBB109226021092250220
:10027000C0E0D0E014E088B3812788BBC39882E057
:1002800090E00E948A0088B3812788BBC39882E0EF
:1002900090E00E948A00219682E0C632D80759F782
:1002A00080E29EE420E931E0F9013197F1F701970E
:1002B000D9F7C0E0D0E014E088B3812788BBC39AA7
:1002C00082E090E00E948A0088B3812788BBC39AAD
:1002D00082E090E00E948A00219682E0C632D80730
:1002E00059F788EC90E020E931E0F9013197F1F716
:1002F0000197D9F710922402DF91CF911F910895B1
:100300002F923F924F925F926F927F928F929F9225
:10031000AF92BF92CF92DF92EF92FF920F931F9313
:10032000CF93DF930E947C008FEF87BB81BB87E078
:1003300082B987EE86B9C79A88B3806388BBC19AB1
:10034000C39A80EF85BB80E48BBB88E98AB987E6D6
:1003500089B9789401E010E0FF24F39454E0E52E8D
:1003600040E9C42E41E0D42E3EEF232E3FEF332E42
:1003700025E0822E912C94E0692E712C83E0482E8A
:10038000512CAA24AA94BA2C25E027B980EA9FE030
:100390000197F1F764B175B1709328026093270259
:1003A00080E090E00E94A80520E030E04AE754E4B5
:1003B0000E94AE0320E030EC4FE754E40E94A80412
:1003C0000E94540570931F0260931E02685572408C
:1003D00000F5C79A88B3806388BB01301105B9F472
:1003E000C0E0D0E0C19888B38F2588BB82E090E060
:1003F0000E948A00C19888B38F2588BB82E090E074
:100400000E948A00219684E0CE37D80759F702E08F
:1004100010E080911E0290911F028855924000F1D9
:10042000C79A88B3806388BB02301105B9F4C0E075
:10043000D0E0C19A88B38F2588BB82E090E00E940B
:100440008A00C19A88B38F2588BB82E090E00E9421
:100450008A00219684E0CC34D80759F701E010E0F7
:1004600080910701813369F180910701823349F15D
:1004700080910701833329F180910701843309F1C9
:10048000809107018533E9F0809107018633C9F037
:10049000809107018733A9F080910701883389F0A3
:1004A00080910701893369F080910701803349F019
:1004B00080910701843629F080910701853609F083
:1004C000E5C080910701813341F481E090E0909391
:1004D00026028093250281E30BC0809107018233BD
:1004E00051F482E090E0909326028093250282E30B
:1004F0000E940401A6C080910701833329F4509221
:10050000260240922502F4CF80910701843329F41A
:100510007092260260922502EBCF8091070185330D
:1005200029F49092260280922502E2CF8091070161
:10053000863341F486E090E0909326028093250272
:1005400086E3D6CF80910701873341F487E090E0BE
:10055000909326028093250287E3CACF80910701FA
:10056000883341F488E090E090932602809325023E
:1005700088E3BECF80910701893341F489E090E0A0
:10058000909326028093250289E3B2CF80910701E0
:10059000803329F41092260210922502A9CF80916F
:1005A0000701843659F41092240210922602109208
:1005B0002502309206012092050143C08091070177
:1005C000853609F03EC0C0E0D0E088B38E2588BBF8
:1005D000C39882E090E00E948A0088B38E2588BB91
:1005E000C39882E090E00E948A00219692E0C63291
:1005F000D90759F788EC90E0F6013197F1F70197A8
:10060000D9F7C0E0D0E088B38E2588BBC39A82E0DA
:1006100090E00E948A0088B38E2588BBC39A82E04E
:1006200090E00E948A00219622E0C632D20759F754
:1006300080ED97E0F6013197F1F70197D9F7109225
:10064000240280910501909106018330910529F4DF
:10065000109206011092050105C0019690930601C3
:1006600080930501E0912502F0912602E85FFE4F9C
:1006700080818BBBE0910501F0910601EE5EFE4F9B
:10068000808185BB80E29EE40197F1F780910701AC
:100690008F3689F080910701863669F080910701D5
:1006A000853749F080910701823629F08091070152
:1006B000813609F069CE809107018F3611F48FEFF2
:1006C00082BB80910701863609F412BA8091070136
:1006D0008537B9F4C0E0D0E088B38F2588BBC19AD4
:1006E00082E090E00E948A0088B38F2588BBC19A7F
:1006F00082E090E00E948A00219684E0CC34D80702
:1007000059F7809107018236B9F4C0E0D0E088B390
:100710008F2588BBC19882E090E00E948A0088B350
:100720008F2588BBC19882E090E00E948A002196C4
:1007300094E0CE37D90759F780910701813609F047
:1007400023CE20EF25BB80E48BBB10926500109276
:100750002402B0920601A092050116CEA0E2B0E0FC
:10076000E4EBF3E00C94BD0769837A838B839C836D
:100770002D833E834F835887CE010196BE01675F6C
:100780007F4F0E944507CE010596BE016F5E7F4FE9
:100790000E9445079985923088F089898230C8F097
:1007A000943019F4823051F404C0843029F492302A
:1007B00081F486E191E0C6C0923049F420E09A8548
:1007C0008A89981321E02A87CE010996BBC082301E
:1007D00049F420E09A858A89981321E02A8BCE017A
:1007E0004196B0C02D843E844F8458886D887E88A1
:1007F0008F88988CEE24FF248701AA24BB246501EE
:1008000040E050E060E070E0E0E0F0E0C1018170C5
:100810009070892BE9F0E60CF71C081D191D9A0150
:10082000AB012A0D3B1D4C1D5D1D80E090E0A0E05A
:10083000B0E0E614F7040805190520F481E090E023
:10084000A0E0B0E0BA01A901480F591F6A1F7B1F41
:10085000AA0CBB1CCC1CDD1C97FE08C081E090E0FC
:10086000A0E0B0E0A82AB92ACA2ADB2A3196E032F1
:10087000F10549F0660C771C881C991C5694479426
:1008800037942794C3CFFA85EA892B893C898B85D5
:100890009C85280F391F2E5F3F4F17C0CA018170FA
:1008A0009070892B61F016950795F794E79480E096
:1008B00090E0A0E0B0E8E82AF92A0A2B1B2B7695F5
:1008C0006795579547952F5F3F4F77FDE7CF0CC052
:1008D000440F551F661F771F17FD4160EE0CFF1C6C
:1008E000001F111F21503040403090E0590790E028
:1008F000690790E4790760F32B8F3C8FDB01CA0115
:100900008F779070A070B07080349105A105B1050B
:1009100061F447FD0AC0E114F1040105110529F055
:10092000405C5F4F6F4F7F4F40781A8EFE1711F07B
:1009300081E08A8F4D8F5E8F6F8F78A383E0898FE0
:10094000CE0149960E947006A096E2E10C94D90768
:10095000A8E1B0E0EEEAF4E00C94C50769837A837D
:100960008B839C832D833E834F835887B9E0EB2E86
:10097000F12CEC0EFD1ECE010196B7010E94450739
:100980008E010F5E1F4FCE010596B8010E944507EC
:100990002985223008F47EC03989323010F4B8013C
:1009A0007CC08A859A8989278A87243011F0223071
:1009B00031F4231709F06EC066E171E06EC0343087
:1009C00039F41D861E861F86188A1C861B8604C065
:1009D000323021F484E08987B7015FC02B853C85E4
:1009E0008B899C89281B390B3C872B87ED84FE84DF
:1009F0000F851889AD88BE88CF88D88CEA14FB048F
:100A00000C051D0540F4EE0CFF1C001F111F2150AA
:100A100030403C872B8720E030E040E050E080E031
:100A200090E0A0E0B0E460E070E0EA14FB040C05A4
:100A30001D0540F0282B392B4A2B5B2BEA18FB08AD
:100A40000C091D09B695A79597958795EE0CFF1C87
:100A5000001F111F6F5F7F4F6F31710531F7DA0192
:100A6000C9018F779070A070B07080349105A10596
:100A7000B10561F427FD0AC0E114F1040105110577
:100A800029F0205C3F4F4F4F5F4F20782D873E87E6
:100A90004F87588BBE01675F7F4FCB010E94700666
:100AA0006896EAE00C94E107ACE0B0E0EAE5F5E036
:100AB0000C94CD0769837A838B839C83CE01019646
:100AC000BE016B5F7F4F0E9445078D81823061F1CF
:100AD000823050F1843021F48E81882351F12EC070
:100AE0002F81388537FD20C06E812F3131051CF0F4
:100AF0006623F9F023C08EE190E0821B930B2985D9
:100B00003A854B855C8504C0569547953795279562
:100B10008A95D2F76623B1F050954095309521958E
:100B20003F4F4F4F5F4F0EC020E030E040E050E0BD
:100B300009C02FEF3FEF4FEF5FE704C020E030E048
:100B400040E050E8B901CA012C96E2E00C94E907B4
:100B5000A8E0B0E0EEEAF5E00C94C5077B018C015B
:100B6000611571058105910519F482E0898360C0E2
:100B700083E089838EE1C82ED12CDC82CB82ED828A
:100B8000FE820F831887C801B7010E942106FC016D
:100B90003197F7FF3BC0222733272E1B3F0B57010E
:100BA0006801022E04C0D694C794B794A7940A94FF
:100BB000D2F740E050E060E070E081E090E0A0E03B
:100BC000B0E004C0880F991FAA1FBB1F2A95D2F757
:100BD0000197A109B1098E219F21A023B12300977C
:100BE000A105B10521F041E050E060E070E04A2944
:100BF0005B296C297D294D835E836F8378878EE125
:100C000090E08E1B9F0B9C838B8312C0309781F0EA
:100C10000E2E04C0EE0CFF1C001F111F0A94D2F709
:100C2000ED82FE820F831887CE1ADF0ADC82CB8228
:100C30001A82CE0101960E9470062896EAE00C9472
:100C4000E107EF92FF920F931F937B018C0180E0ED
:100C5000E81680E0F80681E0080780E0180788F4CD
:100C60008FEFE816F1040105110531F028F088E056
:100C700090E0A0E0B0E017C080E090E0A0E0B0E03D
:100C800012C080E0E81680E0F80680E0080781E006
:100C9000180728F088E190E0A0E0B0E004C080E10F
:100CA00090E0A0E0B0E020E230E040E050E0281B1F
:100CB000390B4A0B5B0B04C016950795F794E79424
:100CC0008A95D2F7F701E25EFE4F8081281B310939
:100CD00041095109C9011F910F91FF90EF900895AB
:100CE000DF92EF92FF920F931F93FC01E480F58057
:100CF00006811781D1808081823048F480E090E0C5
:100D0000A0E1B0E0E82AF92A0A2B1B2BA5C0843009
:100D100009F49FC0823021F4EE24FF24870105C02E
:100D2000E114F1040105110519F4E0E0F0E096C0CA
:100D3000628173819FEF623879070CF05BC022E813
:100D40003FEF261B370B2A3131052CF020E030E035
:100D500040E050E02AC0B801A701022E04C07695F9
:100D60006795579547950A94D2F781E090E0A0E007
:100D7000B0E004C0880F991FAA1FBB1F2A95D2F7A5
:100D80000197A109B1098E219F21A023B1230097CA
:100D9000A105B10521F081E090E0A0E0B0E09A016A
:100DA000AB01282B392B4A2B5B2BDA01C9018F773A
:100DB0009070A070B07080349105A105B10539F430
:100DC00027FF09C0205C3F4F4F4F5F4F04C0215C9D
:100DD0003F4F4F4F5F4FE0E0F0E02030A0E03A0798
:100DE000A0E04A07A0E45A0710F0E1E0F0E0790142
:100DF0008A0127C06038710564F5FB01E158FF4F97
:100E0000D801C7018F779070A070B07080349105C1
:100E1000A105B10539F4E7FE0DC080E490E0A0E043
:100E2000B0E004C08FE390E0A0E0B0E0E80EF91E6F
:100E30000A1F1B1F17FF05C016950795F794E79427
:100E4000319687E016950795F794E7948A95D1F740
:100E500005C0EE24FF248701EFEFF0E06E2F6795C9
:100E600066276795902F9F77D794DD24D7948E2F90
:100E70008695492F462B582F5D29B701CA011F912E
:100E80000F91FF90EF90DF900895FC01DB0140810E
:100E900051812281622F6F7770E0221F2227221F4B
:100EA0009381892F880F822B282F30E0991F992753
:100EB000991F11969C93119721153105A9F541159C
:100EC00051056105710511F482E037C082E89FEF9A
:100ED00013969C938E9312979A01AB0167E0220FB1
:100EE000331F441F551F6A95D1F783E08C930DC0C3
:100EF000220F331F441F551F12968D919C911397FB
:100F0000019713969C938E931297203080E03807B8
:100F100080E0480780E4580758F314962D933D93DA
:100F20004D935C93179708952F3F310579F4411540
:100F300051056105710519F484E08C93089564FFEF
:100F400003C081E08C9312C01C9210C02F57304018
:100F500013963C932E93129783E08C9387E0440F73
:100F6000551F661F771F8A95D1F7706414964D93AD
:100F70005D936D937C93179708952F923F924F92B4
:100F80005F926F927F928F929F92AF92BF92CF9219
:100F9000DF92EF92FF920F931F93CF93DF93CDB722
:100FA000DEB7CA1BDB0B0FB6F894DEBF0FBECDBF9A
:100FB00009942A88398848885F846E847D848C846B
:100FC0009B84AA84B984C884DF80EE80FD800C8174
:100FD0001B81AA81B981CE0FD11D0FB6F894DEBF57
:0C0FE0000FBECDBFED010895F894FFCFC7
:100FEC003132333400FFFF2D3F065B4F666D7C07BB
:100FFC007F67F7FBFDFE0000000000000000000111
:10100C00020203030303040404040404040405059A
:10101C000505050505050505050505050505060672
:10102C000606060606060606060606060606060654
:10103C000606060606060606060606060606070742
:10104C000707070707070707070707070707070724
:10105C000707070707070707070707070707070714
:10106C000707070707070707070707070707070704
:10107C0007070707070707070707070707070808F2
:10108C0008080808080808080808080808080808D4
:10109C0008080808080808080808080808080808C4
:1010AC0008080808080808080808080808080808B4
:1010BC0008080808080808080808080808080808A4
:1010CC000808080808080808080808080808080894
:1010DC000808080808080808080808080808080884
:1010EC000808080808080808080808080808080874
:0E10FC00080808080808080808080808080876
:00000001FF
